{
  "contractName": "CarRental",
  "abi": [
    {
      "inputs": [],
      "stateMutability": "nonpayable",
      "type": "constructor"
    },
    {
      "anonymous": false,
      "inputs": [
        {
          "indexed": false,
          "internalType": "uint256",
          "name": "id",
          "type": "uint256"
        },
        {
          "indexed": false,
          "internalType": "string",
          "name": "description",
          "type": "string"
        }
      ],
      "name": "Accident",
      "type": "event"
    },
    {
      "anonymous": false,
      "inputs": [
        {
          "indexed": false,
          "internalType": "uint256",
          "name": "id",
          "type": "uint256"
        },
        {
          "indexed": false,
          "internalType": "string",
          "name": "description",
          "type": "string"
        }
      ],
      "name": "Breakdown",
      "type": "event"
    },
    {
      "anonymous": false,
      "inputs": [
        {
          "indexed": false,
          "internalType": "uint256",
          "name": "id",
          "type": "uint256"
        },
        {
          "indexed": false,
          "internalType": "bool",
          "name": "isAvailable",
          "type": "bool"
        },
        {
          "indexed": false,
          "internalType": "bool",
          "name": "isActive",
          "type": "bool"
        },
        {
          "indexed": false,
          "internalType": "uint256",
          "name": "price",
          "type": "uint256"
        },
        {
          "indexed": false,
          "internalType": "address",
          "name": "owner",
          "type": "address"
        },
        {
          "indexed": false,
          "internalType": "uint256",
          "name": "activeRentalId",
          "type": "uint256"
        }
      ],
      "name": "CreateCar",
      "type": "event"
    },
    {
      "anonymous": false,
      "inputs": [
        {
          "indexed": false,
          "internalType": "uint256",
          "name": "id",
          "type": "uint256"
        }
      ],
      "name": "DeletedCar",
      "type": "event"
    },
    {
      "anonymous": false,
      "inputs": [
        {
          "indexed": false,
          "internalType": "uint256",
          "name": "id",
          "type": "uint256"
        },
        {
          "indexed": false,
          "internalType": "bool",
          "name": "available",
          "type": "bool"
        },
        {
          "indexed": false,
          "internalType": "uint256",
          "name": "price",
          "type": "uint256"
        }
      ],
      "name": "EditedCar",
      "type": "event"
    },
    {
      "anonymous": false,
      "inputs": [
        {
          "indexed": false,
          "internalType": "uint256",
          "name": "id",
          "type": "uint256"
        },
        {
          "indexed": false,
          "internalType": "string",
          "name": "description",
          "type": "string"
        }
      ],
      "name": "ExcessVelocity",
      "type": "event"
    },
    {
      "anonymous": false,
      "inputs": [
        {
          "indexed": false,
          "internalType": "uint256",
          "name": "id",
          "type": "uint256"
        },
        {
          "indexed": false,
          "internalType": "uint256",
          "name": "carId",
          "type": "uint256"
        },
        {
          "indexed": false,
          "internalType": "uint256",
          "name": "timeOfDelivery",
          "type": "uint256"
        },
        {
          "indexed": false,
          "internalType": "uint256[]",
          "name": "eventsOccured",
          "type": "uint256[]"
        },
        {
          "indexed": false,
          "internalType": "bool",
          "name": "isFinished",
          "type": "bool"
        }
      ],
      "name": "RentEnded",
      "type": "event"
    },
    {
      "anonymous": false,
      "inputs": [
        {
          "indexed": false,
          "internalType": "uint256",
          "name": "id",
          "type": "uint256"
        },
        {
          "indexed": false,
          "internalType": "uint256",
          "name": "carId",
          "type": "uint256"
        },
        {
          "indexed": false,
          "internalType": "uint256",
          "name": "price",
          "type": "uint256"
        },
        {
          "indexed": false,
          "internalType": "uint256",
          "name": "timeOfRental",
          "type": "uint256"
        },
        {
          "indexed": false,
          "internalType": "uint256",
          "name": "timeOfDelivery",
          "type": "uint256"
        },
        {
          "indexed": false,
          "internalType": "uint256[]",
          "name": "eventsOccured",
          "type": "uint256[]"
        },
        {
          "indexed": false,
          "internalType": "bool",
          "name": "isFinished",
          "type": "bool"
        }
      ],
      "name": "RentStarted",
      "type": "event"
    },
    {
      "anonymous": false,
      "inputs": [
        {
          "indexed": false,
          "internalType": "uint256",
          "name": "id",
          "type": "uint256"
        },
        {
          "indexed": false,
          "internalType": "string",
          "name": "description",
          "type": "string"
        }
      ],
      "name": "SuddenBreak",
      "type": "event"
    },
    {
      "inputs": [
        {
          "internalType": "uint256",
          "name": "price",
          "type": "uint256"
        }
      ],
      "name": "createVehicle",
      "outputs": [],
      "stateMutability": "nonpayable",
      "type": "function"
    },
    {
      "inputs": [
        {
          "internalType": "uint256",
          "name": "id",
          "type": "uint256"
        }
      ],
      "name": "delVehicle",
      "outputs": [],
      "stateMutability": "nonpayable",
      "type": "function"
    },
    {
      "inputs": [
        {
          "internalType": "uint256",
          "name": "id",
          "type": "uint256"
        },
        {
          "internalType": "uint256",
          "name": "price",
          "type": "uint256"
        },
        {
          "internalType": "bool",
          "name": "status",
          "type": "bool"
        }
      ],
      "name": "editVehicle",
      "outputs": [],
      "stateMutability": "nonpayable",
      "type": "function"
    },
    {
      "inputs": [
        {
          "internalType": "uint256",
          "name": "id",
          "type": "uint256"
        }
      ],
      "name": "carRenting",
      "outputs": [
        {
          "internalType": "string",
          "name": "",
          "type": "string"
        }
      ],
      "stateMutability": "payable",
      "type": "function",
      "payable": true
    },
    {
      "inputs": [
        {
          "internalType": "uint256",
          "name": "id",
          "type": "uint256"
        }
      ],
      "name": "killRenting",
      "outputs": [
        {
          "internalType": "string",
          "name": "",
          "type": "string"
        }
      ],
      "stateMutability": "nonpayable",
      "type": "function"
    },
    {
      "inputs": [
        {
          "internalType": "uint256",
          "name": "id",
          "type": "uint256"
        },
        {
          "internalType": "string",
          "name": "description",
          "type": "string"
        },
        {
          "internalType": "uint8",
          "name": "eventCode",
          "type": "uint8"
        }
      ],
      "name": "emitEvent",
      "outputs": [],
      "stateMutability": "nonpayable",
      "type": "function"
    }
  ],
  "bytecode": "0x60806040526000600360006101000a81548163ffffffff021916908363ffffffff16021790555034801561003257600080fd5b5061188b806100426000396000f3fe6080604052600436106100555760003560e01c806362c9cbb61461005a5780637ae3010c146100955780637d3788981461013c578063b34782d2146101f0578063cf6713d0146102cf578063e81d0bd51461030a575b600080fd5b34801561006657600080fd5b506100936004803603602081101561007d57600080fd5b810190808035906020019092919050505061035b565b005b6100c1600480360360208110156100ab57600080fd5b810190808035906020019092919050505061062a565b6040518080602001828103825283818151815260200191508051906020019080838360005b838110156101015780820151818401526020810190506100e6565b50505050905090810190601f16801561012e5780820380516001836020036101000a031916815260200191505b509250505060405180910390f35b34801561014857600080fd5b506101756004803603602081101561015f57600080fd5b8101908080359060200190929190505050610ad1565b6040518080602001828103825283818151815260200191508051906020019080838360005b838110156101b557808201518184015260208101905061019a565b50505050905090810190601f1680156101e25780820380516001836020036101000a031916815260200191505b509250505060405180910390f35b3480156101fc57600080fd5b506102cd6004803603606081101561021357600080fd5b81019080803590602001909291908035906020019064010000000081111561023a57600080fd5b82018360208201111561024c57600080fd5b8035906020019184600183028401116401000000008311171561026e57600080fd5b91908080601f016020809104026020016040519081016040528093929190818152602001838380828437600081840152601f19601f820116905080830192505050505050509192919290803560ff169060200190929190505050610ea5565b005b3480156102db57600080fd5b50610308600480360360208110156102f257600080fd5b81019080803590602001909291905050506112dc565b005b34801561031657600080fd5b506103596004803603606081101561032d57600080fd5b81019080803590602001909291908035906020019092919080351515906020019092919050505061148c565b005b600115156000828154811061036c57fe5b906000526020600020906005020160010160019054906101000a900460ff16151514610400576040517f08c379a000000000000000000000000000000000000000000000000000000000815260040180806020018281038252600f8152602001807f63617220697320696e616374697665000000000000000000000000000000000081525060200191505060405180910390fd5b600115156000828154811061041157fe5b906000526020600020906005020160010160009054906101000a900460ff161515146104a5576040517f08c379a00000000000000000000000000000000000000000000000000000000081526004018080602001828103825260128152602001807f63617220697320756e617661696c61626c65000000000000000000000000000081525060200191505060405180910390fd5b600081815481106104b257fe5b906000526020600020906005020160030160009054906101000a900473ffffffffffffffffffffffffffffffffffffffff1673ffffffffffffffffffffffffffffffffffffffff163373ffffffffffffffffffffffffffffffffffffffff1614610584576040517f08c379a00000000000000000000000000000000000000000000000000000000081526004018080602001828103825260138152602001807f6e6f7420746865206361722773206f776e65720000000000000000000000000081525060200191505060405180910390fd5b600080828154811061059257fe5b906000526020600020906005020160010160006101000a81548160ff02191690831515021790555060008082815481106105c857fe5b906000526020600020906005020160010160016101000a81548160ff0219169083151502179055507f50488e2660bad3e8cb9716bd1ce7c69a3053679c1d406cbb4fd50668a44b04a6816040518082815260200191505060405180910390a150565b6060600115156000838154811061063d57fe5b906000526020600020906005020160010160019054906101000a900460ff161515146106d1576040517f08c379a000000000000000000000000000000000000000000000000000000000815260040180806020018281038252600f8152602001807f63617220697320696e616374697665000000000000000000000000000000000081525060200191505060405180910390fd5b600082815481106106de57fe5b906000526020600020906005020160030160009054906101000a900473ffffffffffffffffffffffffffffffffffffffff1673ffffffffffffffffffffffffffffffffffffffff163373ffffffffffffffffffffffffffffffffffffffff16141561074857600080fd5b6000828154811061075557fe5b90600052602060002090600502016002015434101561077357600080fd5b600115156000838154811061078457fe5b906000526020600020906005020160010160009054906101000a900460ff161515146107af57600080fd5b600060018054905090506107c161175c565b6040518060e00160405280838152602001858152602001600086815481106107e557fe5b906000526020600020906005020160020154815260200142815260200160008152602001600067ffffffffffffffff8111801561082157600080fd5b506040519080825280602002602001820160405280156108505781602001602082028036833780820191505090505b5081526020016000151581525090506001819080600181540180825580915050600190039060005260206000209060070201600090919091909150600082015181600001556020820151816001015560408201518160020155606082015181600301556080820151816004015560a08201518160050190805190602001906108d992919061179b565b5060c08201518160060160006101000a81548160ff0219169083151502179055505050816000858154811061090a57fe5b9060005260206000209060050201600401819055503073ffffffffffffffffffffffffffffffffffffffff166108fc6000868154811061094657fe5b9060005260206000209060050201600201549081150290604051600060405180830381858888f19350505050158015610983573d6000803e3d6000fd5b50600080858154811061099257fe5b906000526020600020906005020160010160006101000a81548160ff0219169083151502179055507f779e84f0a57a9ce87570339c5324dcf5a48201024b9df0383b8df4c6a8bbee1d8285600087815481106109ea57fe5b9060005260206000209060050201600201544260008067ffffffffffffffff81118015610a1657600080fd5b50604051908082528060200260200182016040528015610a455781602001602082028036833780820191505090505b50600060405180888152602001878152602001868152602001858152602001848152602001806020018315158152602001828103825284818151815260200191508051906020019060200280838360005b83811015610ab1578082015181840152602081019050610a96565b505050509050019850505050505050505060405180910390a15050919050565b60606001151560008381548110610ae457fe5b906000526020600020906005020160010160019054906101000a900460ff16151514610b78576040517f08c379a000000000000000000000000000000000000000000000000000000000815260040180806020018281038252600f8152602001807f63617220697320696e616374697665000000000000000000000000000000000081525060200191505060405180910390fd5b60008281548110610b8557fe5b906000526020600020906005020160030160009054906101000a900473ffffffffffffffffffffffffffffffffffffffff1673ffffffffffffffffffffffffffffffffffffffff163373ffffffffffffffffffffffffffffffffffffffff1614610bee57600080fd5b6000151560008381548110610bff57fe5b906000526020600020906005020160010160009054906101000a900460ff16151514610c2a57600080fd5b600160008381548110610c3957fe5b90600052602060002090600502016004015481548110610c5557fe5b906000526020600020906007020160060160009054906101000a900460ff1615610c7e57600080fd5b42600160008481548110610c8e57fe5b90600052602060002090600502016004015481548110610caa57fe5b90600052602060002090600702016004018190555060018060008481548110610ccf57fe5b90600052602060002090600502016004015481548110610ceb57fe5b906000526020600020906007020160060160006101000a81548160ff0219169083151502179055503373ffffffffffffffffffffffffffffffffffffffff166108fc60008481548110610d3a57fe5b9060005260206000209060050201600201549081150290604051600060405180830381858888f19350505050158015610d77573d6000803e3d6000fd5b50600160008381548110610d8757fe5b906000526020600020906005020160010160006101000a81548160ff0219169083151502179055507f100d5c3708cc5eed3a7a1db52fa8351e047c4535eee68ebdea6538e7e993ec0c60008381548110610ddd57fe5b9060005260206000209060050201600401548342600160008781548110610e0057fe5b90600052602060002090600502016004015481548110610e1c57fe5b90600052602060002090600702016005016001604051808681526020018581526020018481526020018060200183151581526020018281038252848181548152602001915080548015610e8e57602002820191906000526020600020905b815481526020019060010190808311610e7a575b5050965050505050505060405180910390a1919050565b6000151560008481548110610eb657fe5b906000526020600020906005020160010160019054906101000a900460ff16151514610f4a576040517f08c379a000000000000000000000000000000000000000000000000000000000815260040180806020018281038252600f8152602001807f63617220697320696e616374697665000000000000000000000000000000000081525060200191505060405180910390fd5b600160008481548110610f5957fe5b90600052602060002090600502016004015481548110610f7557fe5b906000526020600020906007020160060160009054906101000a900460ff1615610f9e57600080fd5b60018160ff161415611053577fb6786bfd4eddcaf34cc0f396a65797add1d496a51532c82ecf0fbfd0f5cdcda283836040518083815260200180602001828103825283818151815260200191508051906020019080838360005b83811015611013578082015181840152602081019050610ff8565b50505050905090810190601f1680156110405780820380516001836020036101000a031916815260200191505b50935050505060405180910390a1611271565b60028160ff161415611108577fcf078642c85452dd012323f387a6b5a1a285c6d1846f5101ecce5881ca66fbe683836040518083815260200180602001828103825283818151815260200191508051906020019080838360005b838110156110c85780820151818401526020810190506110ad565b50505050905090810190601f1680156110f55780820380516001836020036101000a031916815260200191505b50935050505060405180910390a1611270565b60038160ff1614156111bd577f9eab5da5f6a96da647a939b96e221108f7ccf5294230be6787fe7e49282e177683836040518083815260200180602001828103825283818151815260200191508051906020019080838360005b8381101561117d578082015181840152602081019050611162565b50505050905090810190601f1680156111aa5780820380516001836020036101000a031916815260200191505b50935050505060405180910390a161126f565b60048160ff16141561126e577fd1842096d7442bf9d1b45f85f066d53d33032e29068459514d24a025ce14f10c83836040518083815260200180602001828103825283818151815260200191508051906020019080838360005b83811015611232578082015181840152602081019050611217565b50505050905090810190601f16801561125f5780820380516001836020036101000a031916815260200191505b50935050505060405180910390a15b5b5b5b60016000848154811061128057fe5b9060005260206000209060050201600401548154811061129c57fe5b906000526020600020906007020160050181908060018154018082558091505060019003906000526020600020016000909160ff16909190915055505050565b6000808054905090506112ed6117e8565b6040518060c001604052808381526020016001151581526020016001151581526020018481526020013373ffffffffffffffffffffffffffffffffffffffff1681526020016000815250905060008190806001815401808255809150506001900390600052602060002090600502016000909190919091506000820151816000015560208201518160010160006101000a81548160ff02191690831515021790555060408201518160010160016101000a81548160ff0219169083151502179055506060820151816002015560808201518160030160006101000a81548173ffffffffffffffffffffffffffffffffffffffff021916908373ffffffffffffffffffffffffffffffffffffffff16021790555060a0820151816004015550507f8b40b48719f1002ee230e307a0fe032bca45ad285ae806c44aed7dc34da1f151826001808633600060405180878152602001861515815260200185151581526020018481526020018373ffffffffffffffffffffffffffffffffffffffff168152602001828152602001965050505050505060405180910390a1505050565b600115156000848154811061149d57fe5b906000526020600020906005020160010160019054906101000a900460ff16151514611531576040517f08c379a000000000000000000000000000000000000000000000000000000000815260040180806020018281038252600f8152602001807f63617220697320696e616374697665000000000000000000000000000000000081525060200191505060405180910390fd5b600115156000848154811061154257fe5b906000526020600020906005020160010160009054906101000a900460ff161515146115d6576040517f08c379a00000000000000000000000000000000000000000000000000000000081526004018080602001828103825260128152602001807f63617220697320756e617661696c61626c65000000000000000000000000000081525060200191505060405180910390fd5b600083815481106115e357fe5b906000526020600020906005020160030160009054906101000a900473ffffffffffffffffffffffffffffffffffffffff1673ffffffffffffffffffffffffffffffffffffffff163373ffffffffffffffffffffffffffffffffffffffff16146116b5576040517f08c379a00000000000000000000000000000000000000000000000000000000081526004018080602001828103825260138152602001807f6e6f7420746865206361722773206f776e65720000000000000000000000000081525060200191505060405180910390fd5b81600084815481106116c357fe5b90600052602060002090600502016002018190555080600084815481106116e657fe5b906000526020600020906005020160010160006101000a81548160ff0219169083151502179055507f77402b92b056a305d505b9ecd2fcf8efddfb5fbef8983ff9ed20ad1959cf94ca838284604051808481526020018315158152602001828152602001935050505060405180910390a1505050565b6040518060e001604052806000815260200160008152602001600081526020016000815260200160008152602001606081526020016000151581525090565b8280548282559060005260206000209081019282156117d7579160200282015b828111156117d65782518255916020019190600101906117bb565b5b5090506117e49190611838565b5090565b6040518060c001604052806000815260200160001515815260200160001515815260200160008152602001600073ffffffffffffffffffffffffffffffffffffffff168152602001600081525090565b5b80821115611851576000816000905550600101611839565b509056fea2646970667358221220b85f60c1460a072e644a100f222149da5737f57806b97b3cdac7295efcd7fd6e64736f6c63430007000033",
  "immutableReferences": {},
  "source": "pragma solidity >=0.4.22 <0.8.0;\n\nimport \"./IERC20.sol\";\n\ncontract CarRental\n{\n    struct RentalCar { // Estrutura destinada às credenciais do carro alugado\n        uint256 id;\n        bool isAvailable;\n        bool isActive;\n        uint256 price;\n        address owner;\n        uint256 activeRentalId;\n    }\n\n    struct Rental{ // Estrutura destinada às propriedades do aluguer\n        uint256 id;\n        uint256 carId;\n        uint256 price;\n        uint256 timeOfRental;\n        uint256 timeOfDelivery;\n        uint256[] eventsOccured;\n        bool isFinished;\n    }\n\n    RentalCar[] internal cars; // Inicialização das estruturas\n    Rental[] internal rentals; // Inicialização das estruturas\n    mapping(uint256 => RentalCar) internal transactionApproved;\n\n    uint32 internal privateId = 0;\n\n    // Events\n    event CreateCar(uint256 id, bool isAvailable, bool isActive, uint256 price, address owner, uint256 activeRentalId); // Criação do veículo\n\n    event EditedCar(uint256 id, bool available, uint256 price); // Edição do veículo\n\n    event DeletedCar(uint256 id); // Eliminar um veículo\n    \n    event RentStarted(uint256 id, uint256 carId, uint256 price, uint256 timeOfRental, uint256 timeOfDelivery,uint256[] eventsOccured, bool isFinished); // Inicialização do contrato de aluguer\n\n    event RentEnded(uint256 id, uint256 carId, uint256 timeOfDelivery,uint256[] eventsOccured, bool isFinished); // Cessação do contrato de aluguer\n\n    event ExcessVelocity(uint256 id, string description); // Evento de alerta de excesso de velocidade\n\n    event SuddenBreak(uint256 id, string description); // Evento de alerta de travagem repentina\n\n    event Accident(uint256 id, string description); // Evento de alerta de acidente\n\n    event Breakdown(uint256 id, string description); // Evento de avaria\n\n\n    // This initializes our contract state (sets enum to Pending once the program starts)\n    constructor () public {\n\n    }\n    // Função de criação do veículo\n    function createVehicle(uint256 price) public {\n        uint256 vehicleId = cars.length;\n        RentalCar memory car = RentalCar(\n            vehicleId,\n            true,\n            true,\n            price,\n            msg.sender, // endereço do owner,\n            0\n        );\n        cars.push(car);\n        emit CreateCar(vehicleId, true, true, price, msg.sender, 0); // registar o evento\n    }\n    \n    // Função de eliminar veículo\n    function delVehicle(uint256 id) public {\n        // Obrigatório para a execução da função\n        require(cars[id].isActive == true, \"car is inactive\");\n        require(cars[id].isAvailable == true, \"car is unavailable\");\n        require(msg.sender == cars[id].owner, \"not the car's owner\");\n        \n        cars[id].isAvailable = false;\n        cars[id].isActive = false;\n\n        emit DeletedCar(id); // registar o evento\n    }\n\n\n    // Function to change to Shipped\n    function editVehicle(uint256 id, uint256 price, bool status) public {\n        // Obrigatório para a execução da função\n        require(cars[id].isActive == true, \"car is inactive\");\n        require(cars[id].isAvailable == true, \"car is unavailable\");\n        require(msg.sender == cars[id].owner, \"not the car's owner\");\n\n        cars[id].price = price;\n        cars[id].isAvailable = status;\n\n        emit EditedCar(id, status, price);\n    }\n\n    function carRenting(uint256 id) public payable returns (string memory) {\n        // Obrigatório para a execução da função\n        require(cars[id].isActive == true, \"car is inactive\");\n        require(msg.sender != cars[id].owner);\n        require(msg.value >= cars[id].price);\n        require(cars[id].isAvailable == true);\n        \n        uint256 rentalId = rentals.length;\n        \n        // Inicialização da estrutura do aluguer\n\n        Rental memory rental = Rental(\n            rentalId,\n            id,\n            cars[id].price,\n            block.timestamp,\n            0,\n            new uint256[](0),\n            false\n        );\n        rentals.push(rental);\n        cars[id].activeRentalId = rentalId;\n\n        payable(address(this)).transfer(cars[id].price); // cast a payable address\n        cars[id].isAvailable = false;\n\n        emit RentStarted(rentalId, id, cars[id].price, block.timestamp, 0, new uint256[](0), false); // registar o evento\n    }\n    \n    function killRenting(uint256 id) public returns (string memory) { // Função para eliminar o aluguer\n        // Obrigatório para a execução da função\n        require(cars[id].isActive == true, \"car is inactive\");\n        require(msg.sender == cars[id].owner);\n        require(cars[id].isAvailable == false);\n        require(!rentals[cars[id].activeRentalId].isFinished);\n\n        rentals[cars[id].activeRentalId].timeOfDelivery = block.timestamp;\n        rentals[cars[id].activeRentalId].isFinished = true;\n\n        msg.sender.transfer(cars[id].price);\n        cars[id].isAvailable = true; // \n\n        emit RentEnded(cars[id].activeRentalId, id, block.timestamp, rentals[cars[id].activeRentalId].eventsOccured, true);\n    }\n\n    \n    function emitEvent(uint256 id, string memory description, uint8 eventCode) public{\n        // Obrigatório para a execução da função\n        require(cars[id].isActive == false, \"car is inactive\");\n        require(!rentals[cars[id].activeRentalId].isFinished);\n\n        if(eventCode == 1){\n            emit ExcessVelocity(id, description);\n        }else if(eventCode == 2){\n            emit SuddenBreak(id, description);(id, description);\n        }else if(eventCode == 3){\n            emit Accident(id, description);\n        }else if(eventCode == 4){\n            emit Breakdown(id, description);\n        }\n        rentals[cars[id].activeRentalId].eventsOccured.push(eventCode);\n    }\n\n}",
  "sourcePath": "/Users/pedrolimas22/Documents/UbiwhereSolidity/contracts/CarRental.sol",
  "compiler": {
    "name": "solc",
    "version": "0.7.0+commit.9e61f92b.Emscripten.clang"
  },
  "schemaVersion": "3.3.4",
  "updatedAt": "2021-09-05T11:51:14.671Z",
  "networkType": "ethereum",
  "devdoc": {
    "kind": "dev",
    "methods": {},
    "version": 1
  },
  "userdoc": {
    "kind": "user",
    "methods": {},
    "version": 1
  }
}